:1000000012C02AC029C028C027C026C025C024C0CD
:1000100023C022C021C020C01FC01EC01DC01CC0E4
:100020001BC01AC019C011241FBECFEDCDBF10E0F8
:10003000A0E6B0E0EAEEF2E002C005900D92A63B29
:10004000B107D9F720E0A6EBB0E001C01D92A03CBB
:10005000B207E1F717D047C1D3CF8EEF88BB81EE4F
:1000600094E00197F1F700C0000008958EB5886014
:100070008EBD88E09DE39BBD8ABD8EB583608EBD3D
:10008000089508958FEF87BB8CE781BB8EB588609C
:100090008EBD88E09DE39BBD8ABD8EB583608EBD1D
:1000A0004EEF2AE030E008B606FE16C08091B6009A
:1000B0009091B70001969093B7008093B60088B7EF
:1000C000806488BF8091B6009091B700CC9721F4EE
:1000D0001092B7001092B60048BB81EE94E00197F1
:1000E000F1F700C00000929A9398E0E0F0E0809170
:1000F000B6009091B700B901CFD0880F991F880F33
:10010000991F880F991F805A9F4FDC01AE0FBF1FA8
:100110008C9198B38095892388BB3196E830F1059E
:1001200031F79298939A48BB81EE94E00197F1F7EA
:1001300000C00000E0E0F0E08091B6009091B700D0
:10014000B901AAD0660F771F660F771F660F771F5A
:10015000605A7F4FDB01AE0FBF1F8C9198B3809523
:10016000892388BB3196E830F10531F748BB81EE31
:1001700094E00197F1F700C000009398949AE0E0B2
:10018000F0E08091B2009091B300B90185D0880F62
:10019000991F880F991F880F991F805A9F4FDC0164
:1001A000AE0FBF1F8C9198B38095892388BB319681
:1001B000E830F10531F748BB81EE94E00197F1F7A3
:1001C00000C000009498959AE0E0F0E08091B200C1
:1001D0009091B300B90160D0660F771F660F771F4B
:1001E000660F771F605A7F4FDB01AE0FBF1F8C91E8
:1001F00098B38095892388BB3196E830F10531F7B3
:1002000048BB81EE94E00197F1F700C0000095989B
:10021000969AE0E0F0E08091B0009091B100B901D1
:100220003BD0880F991F880F991F880F991F805AFC
:100230009F4FDC01AE0FBF1F8C9198B3809589232F
:1002400088BB3196E830F10531F748BB81EE94E088
:100250000197F1F700C000009698C09AE0E0F0E046
:100260008091B0009091B100B90116D0660F771F50
:10027000660F771F660F771F605A7F4FDB01AE0F47
:10028000BF1F8C9198B38095892388BB3196E83045
:10029000F10531F7C09807CF97FB072E16F40094AD
:1002A00006D077FD08D00BD007FC05D03EF4909522
:1002B00081959F4F0895709561957F4F0895AA1B72
:1002C000BB1B51E107C0AA1FBB1FA617B70710F041
:1002D000A61BB70B881F991F5A95A9F78095909573
:0A02E000BC01CD010895F894FFCF92
:1002EA0080402010080400000040200000000000A8
:1002FA008040001008000200804020100000020028
:10030A0000402000000402008000201000040200C7
:10031A008000201008040200804020000000000035
:10032A0080402010080402008040200000040200DF
:06033A000E001E00000091
:00000001FF
