:1000000012C02AC029C028C040C026C025C024C0B4
:1000100023C022C021C020C01FC01EC01DC01CC0E4
:100020001BC01AC019C011241FBECFEDCDBF10E0F8
:10003000A0E6B0E0E8E3F7E002C005900D92AC3B2B
:10004000B107D9F720E0ACEBB0E001C01D92A73CAE
:10005000B207E1F78DD06EC3D3CF8EEF88BB87E8B0
:1000600093E10197F1F700C0000008958EB5886014
:100070008EBD88E09DE39BBD8ABD89B7806489BF42
:1000800078948EB584608EBD08958F938FB78F93CB
:100090009F938091B400813089F08091B2008130CB
:1000A00069F08091B300813049F08091C500909152
:1000B000C60001969093C6008093C5009F918F91D2
:1000C0008FBF8F9118958091B7009091B8000196DD
:1000D0009093B8008093B7002091B5003091B6009E
:1000E000CC9751F41092B8001092B7002F5F3F4F99
:1000F0003093B6002093B5002831310509F00895FA
:100100001092B6001092B5000895FC018091BE00D7
:1001100081111CC0208181E090E0AC0102C0440F3D
:10012000551F6A95E2F7BA0160956223608380915A
:10013000BC009091BD0001969093BD008093BC00DF
:100140000A9734F081E08093BE000895813009F071
:1001500008958091BC009091BD0001979093BD00DF
:100160008093BC00181619069CF31092BE000895E7
:100170008FEF87BB8CE781BB82B3836082BB76DF66
:10018000AEEFFA2ECAE0D0E0EE24EA940FEF1FEFB4
:10019000809905C08091B4008F3F09F4F5C1809922
:1001A00005C08091B400813009F41EC2809905C059
:1001B0008091B300813009F429C2809905C0209153
:1001C000B200213009F45BC29091B400819945C11D
:1001D000913009F496C13091B300313009F466C210
:1001E0002091B200213009F42FC2892F832382236A
:1001F0008F3F09F43BC18091C3009091C40090935C
:10020000C6008093C5002091C1003091C200309398
:10021000B8002093B7002091BF003091C000309308
:10022000B6002093B500CC9709F427C1F8BA87E847
:1002300093E10197F1F700C00000929A93988091A2
:10024000B400813009F444C120E030E08091C50061
:100250009091C600BE0147D2880F991F880F991F41
:10026000880F991F805A9F4FFC01E20FF31F808176
:1002700098B38095892388BB2F5F3F4F2830310585
:1002800029F79298939AF8BA87E893E10197F1F7E2
:1002900000C000008091B400813009F414C120E056
:1002A00030E08091C5009091C600BE011CD2660F5F
:1002B000771F660F771F660F771F605A7F4FFB010E
:1002C000E20FF31F808198B38095892388BB2F5F4D
:1002D0003F4F2830310529F7F8BA87E893E10197B5
:1002E000F1F700C000009398949A8091B300813098
:1002F00009F402C120E030E08091B7009091B8008D
:10030000BE01F1D1880F991F880F991F880F991F7F
:10031000805A9F4FFC01E20FF31F808198B38095B4
:10032000892388BB2F5F3F4F2830310529F7F8BA62
:1003300087E893E10197F1F700C000009498959A3F
:100340008091B300813009F4D2C020E030E0809188
:10035000B7009091B800BE01C6D1660F771F660F37
:10036000771F660F771F605A7F4FFB01E20FF31F65
:10037000808198B38095892388BB2F5F3F4F2830B9
:10038000310529F7F8BA87E893E10197F1F700C042
:1003900000009598969A8091B200813009F4A2C02D
:1003A00020E030E08091B5009091B600BE019BD175
:1003B000880F991F880F991F880F991F805A9F4F88
:1003C000FC01E20FF31F808198B38095892388BBDD
:1003D0002F5F3F4F2830310529F7F8BA87E893E1BE
:1003E0000197F1F700C000009698C09A8091B20082
:1003F000813009F472C020E030E08091B500909126
:10040000B600BE0170D1660F771F660F771F660FAB
:10041000771F605A7F4FFB01E20FF31F808198B373
:100420008095892388BB2F5F3F4F2830310529F7FE
:10043000C0988091B0009091B100853091052CF06A
:100440001093B1000093B000A3CE97FDA1CE01960A
:100450009093B1008093B0009BCE8091B300209127
:10046000B200822389238F3F09F0C5CE8091C50059
:100470009091C600CC9709F0D9CE1092C600109288
:10048000C5008091B7009091B80001969093B80094
:100490008093B7002091B5003091B600CC9751F40D
:1004A0001092B8001092B7002F5F3F4F3093B60004
:1004B0002093B5002831310509F0B8CE1092B6006E
:1004C0001092B500B3CE63E082E390E01EDEE7CE8B
:1004D00062E082E390E019DEB7CE60E088E390E06E
:1004E00014DE89CF66E082E390E00FDE59CF65E04D
:1004F00082E390E00ADE29CF64E082E390E005DE4B
:10050000F9CE2091B0003091B1002F3F3F4F09F05C
:1005100072CEA091C100B091C200BD01E091C300B4
:10052000F091C400AF014F5F5F4FFA015093C400D8
:100530004093C3003091B3002091B200822F31303C
:1005400009F4C6C0E091BF00F091C000213009F469
:100550008FC04C33510521F41092C4001092C30097
:100560006C33710521F41092C2001092C10078978B
:1005700021F41092C0001092BF001092B1001092AE
:10058000B0008923832334CE8091B3002091B20040
:1005900082238F3F11F080B309CE8091B0009091FB
:1005A000B1000196C1F78091C5009091C60090936B
:1005B000C4008093C3008091B7009091B8009093DD
:1005C000C2008093C1008091B5009091B6009093D5
:1005D000C0008093BF0081E08093B4001092B1000E
:1005E0001092B00080B3E2CD2091B0003091B10004
:1005F0002F3F3F4F09F0DACDE092B4008093B30073
:100600001092B1001092B00080B3D7CD2091B0000D
:100610003091B1002F3F3F4F09F0CFCDE092B400B1
:10062000E092B3008093B2001092B1001092B0003B
:10063000809BCACD9FEF819910CF3FEF9FEF209114
:10064000B200213009F0D1CD4091B0005091B100FD
:100650004F3F5F4F09F0CFCD4091C3005091C40090
:100660006091C1007091C200E091BF00F091C000A4
:100670003196F093C000E093BF0081E06ACF809193
:10068000B0009091B100019609F09ECDE092B400C7
:10069000E092B300E092B2001092B1001092B0006C
:1006A00080B38091C5009091C600E4CE2091B00047
:1006B0003091B1002F3F3F4F09F09DCD2091B20006
:1006C000E091C300F091C400A091C100B091C200BC
:1006D000BD016F5F7F4F7093C2006093C100822F96
:1006E000AF0131E02FCF97FB072E16F4009406D010
:1006F00077FD08D00BD007FC05D03EF4909581958E
:100700009F4F0895709561957F4F0895AA1BBB1B5D
:1007100051E107C0AA1FBB1FA617B70710F0A61B01
:10072000B70B881F991F5A95A9F780959095BC0122
:08073000CD010895F894FFCFFC
:100738008040201008040000004020000000000055
:1007480080400010080002008040201000000200D5
:100758000040200000040200800020100004020075
:1007680080002010080402008040200000000000E3
:10077800804020100804020080402000000402008D
:0C078800FFFFFFFFFF0E001E000000003E
:00000001FF
