:1000000012C02AC029C028C040C026C025C024C0B4
:1000100023C022C021C020C01FC01EC01DC01CC0E4
:100020001BC01AC019C011241FBECFEDCDBF10E0F8
:10003000A0E6B0E0E0E8F3E002C005900D92A63B38
:10004000B107D9F720E0A6EBB0E001C01D92A03CBB
:10005000B207E1F74ED092C1D3CF8EEF88BB87E8CD
:1000600093E10197F1F700C0000008958EB5886014
:100070008EBD88E09DE39BBD8ABD89B7806489BF42
:1000800078948EB584608EBD08958F938FB78F93CB
:100090009F938091B6009091B70001969093B7001E
:1000A0008093B6009F918F918FBF8F91189580910B
:1000B000B2009091B30001969093B3008093B20088
:1000C0002091B0003091B100CC9751F41092B30060
:1000D0001092B2002F5F3F4F3093B1002093B000D9
:1000E0002831310509F008951092B1001092B00046
:1000F00008958FEF87BB8CE781BB82B3836082BB9F
:10010000B5DF4EEF2AE030E08091B6009091B70065
:10011000CC9709F4E6C048BB87E893E10197F1F773
:1001200000C00000929A9398E0E0F0E08091B60061
:100130009091B700B901FBD0880F991F880F991FC4
:10014000880F991F805A9F4FDC01AE0FBF1F8C9103
:1001500098B38095892388BB3196E830F10531F753
:100160009298939A48BB87E893E10197F1F700C012
:100170000000E0E0F0E08091B6009091B700B90196
:10018000D6D0660F771F660F771F660F771F605AEE
:100190007F4FDB01AE0FBF1F8C9198B380958923F1
:1001A00088BB3196E830F10531F748BB87E893E129
:1001B0000197F1F700C000009398949AE0E0F0E016
:1001C0008091B2009091B300B901B1D0880F991F0E
:1001D000880F991F880F991F805A9F4FDC01AE0F1F
:1001E000BF1F8C9198B38095892388BB3196E830E6
:1001F000F10531F748BB87E893E10197F1F700C0BB
:1002000000009498959AE0E0F0E08091B20090911F
:10021000B300B9018CD0660F771F660F771F660F8A
:10022000771F605A7F4FDB01AE0FBF1F8C9198B3D1
:100230008095892388BB3196E830F10531F748BBBA
:1002400087E893E10197F1F700C000009598969A2E
:10025000E0E0F0E08091B0009091B100B90167D08A
:10026000880F991F880F991F880F991F805A9F4FD9
:10027000DC01AE0FBF1F8C9198B38095892388BB9A
:100280003196E830F10531F748BB87E893E10197F3
:10029000F1F700C000009698C09AE0E0F0E080918D
:1002A000B0009091B100B90142D0660F771F660F80
:1002B000771F660F771F605A7F4FDB01AE0FBF1F9E
:1002C0008C9198B38095892388BB3196E830F105ED
:1002D00031F7C0988091B6009091B700CC9709F0A3
:1002E0001ACF1092B7001092B6008091B200909190
:1002F000B30001969093B3008093B2006091B00078
:100300007091B100CC9751F41092B3001092B200EA
:100310006F5F7F4F7093B1006093B00068317105DB
:1003200009F0F9CE1092B1001092B000F4CE97FB14
:10033000072E16F4009406D077FD08D00BD007FCEA
:1003400005D03EF4909581959F4F089570956195E5
:100350007F4F0895AA1BBB1B51E107C0AA1FBB1FFB
:10036000A617B70710F0A61BB70B881F991F5A9541
:10037000A9F780959095BC01CD010895F894FFCF21
:100380008040201008040000004020000000000011
:100390008040001008000200804020100000020091
:1003A0000040200000040200800020100004020031
:1003B000800020100804020080402000000000009F
:1003C0008040201008040200804020000004020049
:0603D0000E001E000000FB
:00000001FF
