:1000000012C02AC029C028C027C026C025C024C0CD
:1000100023C022C021C020C01FC01EC01DC01CC0E4
:100020001BC01AC019C011241FBECFEDCDBF10E0F8
:10003000A0E6B0E0E0E5F1E002C005900D92A23B41
:10004000B107D9F720E0A2EBB0E001C01D92AA3BB6
:10005000B207E1F702D07AC0D3CF8FEF87BB8FE32F
:1000600081BB4EEF2AE030E048BB929A9398E0E0E3
:10007000F0E08091B0009091B100B90140D0880FBC
:10008000991F880F991F880F991F805A9F4FDC0175
:10009000AE0FBF1F8C9198B38095892388BB319692
:1000A000E830F10531F783EC99E00197F1F700C0F2
:1000B00000009298939A48BBE0E0F0E08091B00095
:1000C0009091B100B9011BD0660F771F660F771FA3
:1000D000660F771F605A7F4FDB01AE0FBF1F8C91F9
:1000E00098B38095892388BB3196E830F10531F7C4
:1000F00083EC99E00197F1F700C00000B5CF97FBC2
:10010000072E16F4009406D077FD08D00BD007FC1C
:1001100005D03EF4909581959F4F08957095619517
:100120007F4F0895AA1BBB1B51E107C0AA1FBB1F2D
:10013000A617B70710F0A61BB70B881F991F5A9573
:10014000A9F780959095BC01CD010895F894FFCF53
:100150008040201008040000004020000000000043
:1001600080400010080002008040201000000000C5
:100170000040200000040200800020100004020063
:1001800080002010080402008040200000000000D1
:10019000804020100804020080402000000402007B
:0201A000050058
:00000001FF
